S01700004763634170706C69636174696F6E312E737265635B
S113000068C0000084C0000082C0000080C00000FE
S11300107EC000007CC000007AC0000075C60000ED
S113002076C0000074C0000072C0000070C0000000
S11300306EC000006CC00000BEC6000068C00000B6
S113004066C0000064C0000062C0000060C0000020
S11300505EC000005CC000005AC0000058C0000030
S113006056C0000054C0000052C0000050C0000040
S11300704EC000004CC000004AC0000048C0000050
S113008046C0000044C0000042C000008F04930436
S11300909804C204C204C204C204C204C204C20456
S11300A0C204C204C204C204C204C204C204C2041C
S11300B0C204C204C204C204C2049C04A304A7046C
S11300C0AB04C204C204C204C204AF04B604BA043A
S11300D0BE0411241FBECFEFD0E1DEBFCDBF11E0BF
S11300E0A0E0B1E0E0ECF3E100E00BBF02C0079058
S11300F00D92AC33B107D9F725E0ACE3B1E001C010
S11301001D92A235B207E1F76AD60C94DE0978CFC6
S113011087EE93E00197F1F700C00000E5E6F0E018
S113012080818B7F808387EE93E00197F1F700C095
S1130130000080818860808387EE93E00197F1F767
S113014000C000000895CF93C82FE2DF87EE93E04C
S11301500197F1F700C00000E5E6F0E090819B7F95
S1130160908387EE93E00197F1F700C0000090813F
S1130170977F908387EE93E00197F1F700C000002A
S113018090819061908387EE93E00197F1F700C02E
S11301900000C2BB87EE93E00197F1F700C00000B6
S11301A080818F7E808387EE93E00197F1F700C012
S11301B00000CF91089588E3C6DF8FEC97E00197A4
S11301C0F1F700C0000081E0BEDF8FE19EE40197FB
S11301D0F1F700C000008FEC97E00197F1F700C041
S11301E000008FEC97E00197F1F700C000008FEC5E
S11301F097E00197F1F700C000008FEC97E00197BA
S1130200F1F700C000008FEC97E00197F1F700C010
S113021000008FEC97E00197F1F700C0000082E046
S113022092DF8FEC97E00197F1F700C0000086E0C1
S11302308ADF8FEC97E00197F1F700C000008CE0B3
S113024082DF8FEC97E00197F1F700C0000088E3AC
S11302507ADF8FEC97E00197F1F700C00000089572
S1130260CF93C42F813019F480E8860F02C080EC4C
S1130270860F69DFE5E6F0E080818460808387EEA5
S113028093E00197F1F700C000008081877F8083AD
S113029087EE93E00197F1F700C00000C2BB87EE40
S11302A093E00197F1F700C00000808180618083B2
S11302B087EE93E00197F1F700C0000080818F7E04
S11302C0808387EE93E00197F1F700C00000CF919F
S11302D008951F93CF93DF93142FE901813019F40C
S11302E080E8860F02C080EC860F2DDFE5E6F0E0A3
S11302F080818460808387EE93E00197F1F700C0EA
S113030000008081877F8083A7EEB3E01197F1F727
S113031000C00000412F112311F18991A7EEB3E031
S11303201197F1F700C0000082BB87EE93E00197BC
S1130330F1F700C00000808180618083A7EEB3E004
S11303401197F1F700C0000080818F7E808387EED3
S113035093E00197F1F700C000004150F1F6DF91FE
S1130360CF911F91089587E487BBBB98C19AC69A21
S1130370C09A83E58DB91EB80895D09AD8988FE3B2
S11303809CE90197F1F700C00000D89A90E59A958E
S1130390F1F7D098C899FECF089516981E9880E377
S11303A08ABF89B7806489BF08951FBC85E08EBD6C
S11303B010927A001DBC1CBC87B7846087BF089567
S11303C080E487B987E886B908958FB9779BFECF13
S11303D08FB10895FF920F931F93CF93DF93D42F80
S11303E0152F062FF72EC22FC6988064EEDF8F2DAF
S11303F0ECDF802FEADF812FE8DF8D2FE6DF8C2F03
S1130400E4DFCAEC02C0C15021F08FEFDEDF8F3F82
S1130410D1F3C69ADF91CF911F910F91FF90089568
S1130420CF932FEF40E050E0BA018AE3D3DF8FEFA0
S1130430CCDFC82F8FEFC9DF8FEFC7DF8FEFC5DFAA
S1130440C6FD03C01092510303C081E080935103A1
S1130450CF910895CF93C69AC8EC8FEFB6DFC15001
S1130460E1F725E940E050E0BA0180E0B3DFC82FAE
S11304708FEFABDF8C2FCF910895CF92DF92EF9265
S1130480FF921F93CF93DF9327E84AEA51E060E09D
S113049070E088E09FDF182FC4E1D0E08FEF95DF94
S11304A02197E1F7BDDF80915103813031F4C12CF4
S11304B0D12C76016894F6F803C0C12CD12C7601B6
S11304C0111112C020C02FEF40E050E0BA0187E3C1
S11304D081DF2FEFB701A60189E27CDF182F219776
S11304E091F01111F0CF0FC02FEF40E050E0BA01AE
S11304F087E370DF2FEFB701A60189E26BDF182FC6
S1130500C8ECD0E0EECF8FEF60DF15BB812FDF9119
S1130510CF911F91FF90EF90DF90CF900895CF93EC
S11305202FEF40E052E060E070E080E153DFC82F3D
S11305308FEF4BDF8C2FCF910895CF9325E940E0C7
S113054050E0BA018BE346DFC82F8FEF3EDF8C2FDC
S1130550CF910895CF92DF92EF92FF9269017A01D1
S11305602FEFAB01BC0180E235DF2FEFB701A6010D
S113057081E230DF2FEF40E050E0BA0186E22ADF6B
S1130580C698811105C08FEF20DF85BB8823D9F37E
S1130590C69AFF90EF90DF90CF900895DF92EF928C
S11305A0FF920F931F93CF93DF9300D000D01F923D
S11305B0CDB7DEB7E2DEC89BFECFC899FECFDE0121
S11305C011967E0126E0E20EF11C0F2EF7E0DF2EDD
S11305D0F02D50E061E070E0FD011C928D2D952F0F
S11305E0C89BFECF25E82A95F1F70000C89B0AC0F6
S11305F040819B01082E02C0220F331F0A94E2F7A8
S1130600242B2083C899FECF019750F71196AE157D
S1130610BF0511F7D09AD89A39812B818A81830F2B
S1130620820F9C81890F9D81981302C0032F122F82
S1130630812F90E0902B0F900F900F900F900F90C0
S1130640DF91CF911F910F91FF90EF90DF9008956C
S1130650369A349BFECF87EE93E00197F1F700C002
S1130660000084B125B190E0922B9695879534983B
S11306708352089515981D988FE19EE40197F1F730
S113068000C0000081B181B1EFE1FEE43197F1F7E0
S113069000C0000085FB882780F908954DEC849FF5
S11306A0412D1124469546954695242F220F922FCD
S11306B0990F990F920F891B282F30E0C901880FD9
S11306C0991F220F331F220F331F220F331F820F54
S11306D0931F840F911D0895AF92BF92CF92DF9222
S11306E0EF92FF920F931F93CF93DF9340914902B0
S11306F050914A0260914B0270914C022FEF88E1B5
S113070069DEC6988FEF61DE8FEF5FDE8FEF5DDE0F
S11307108FEF5BDE8FEF59DE8FEF57DE8EEF55DE06
S11307200F2EF2EDCF2EF3E0DF2EF02D0F2EFDE491
S1130730EF2EF2E0FF2EF02D00E010E00F2EFDE092
S1130740AF2EF02DB12C80910201909103018017FE
S1130750910720F480913C0181117DC0F601C08194
S1130760D1819E01ADECBCEC10D6969587959695FB
S11307708795969587959C01220F331F880F991FA3
S1130780880F991F880F991F820F931F9E01281BA2
S1130790390BC901805D19DE9E01ADECBCECF5D5C9
S11307A0969587959695879596958795805D0DDEA8
S11307B080E00BDEF701C081D1819E01ADECBCEC81
S11307C0E4D59695879596958795969587959C01FA
S11307D0220F331F880F991F880F991F880F991FA5
S11307E0820F931F9E01281B390BC901805DEDDD2B
S11307F09E01ADECBCECC9D59695879596958795E9
S113080096958795805DE1DD80E0DFDDF801E15CB0
S1130810FE4F8081805DD9DD8EE2D7DDF801EE5296
S1130820FB4F8081805DD1DDF801EE5AFC4F808161
S1130830805DCBDD80E0C9DD80E0C7DDF801ED53EC
S1130840FE4F8081805DC1DD8091020190910301A2
S11308508017910730F4CA2DDB2D80E0B6DD219797
S1130860E1F780E0B2DD80E0B0DD80E0AEDD0F5F77
S11308701F4FE2E0CE0ED11CF2E0EF0EF11C00326D
S1130880110509F060CF85E9A0DD85E99EDD8FEFD4
S11308909CDDC82F8F3FD9F38FEF97DD8823E1F3D9
S11308A0C69A8C2FDF91CF911F910F91FF90EF90FB
S11308B0DF90CF90BF90AF9008953F924F925F9298
S11308C06F927F928F929F92AF92BF92CF92DF925C
S11308D0EF92FF920F931F93CF93DF93CDB7DEB7C1
S11308E0AC970FB6F894DEBF0FBECDBF2FEF40E03C
S11308F050E0BA0181E16EDDC6988FEF66DD8E3F70
S1130900E1F701E010E002C00F5F1F4FF8013E97CE
S1130910E332F10508F036C0EA5BFF4F2DC58FEFD7
S113092054DDD82EF1CF8FEF50DDE82EF12CECCF33
S11309308FEF4BDDF82AE8CF8FEF47DD882E912C1F
S1130940A12CB12CE1CF8FEF40DD982ADDCF8FEFC2
S11309503CDDA82AD9CF8FEF38DDB82AD5CF8FEF69
S113096034DD482E512C612C712CCECF8FEF2DDD30
S1130970582ACACF8FEF29DD682AC6CF8FEF25DD2D
S1130980782AC2CF8FEF21DD011522E0120708F487
S1130990BBCF8FEF1ADD8FEF18DDC69A809151031C
S11309A0811118C0880C991CAA1CBB1C8E0C9F1C9E
S11309B0A11CB11CD501C401072E79E0880F991F31
S11309C0AA1FBB1F7A95D1F7702D89A39AA3ABA355
S11309D0BCA310C0813071F4880C991CAA1CBB1CE8
S11309E0A50194012E0D3F1D411D511D29A33AA3BC
S11309F04BA35CA32FEF49A15AA16BA17CA181E178
S1130A00E9DCC6988FEFE1DC8E3FE1F78D2D90E0B5
S1130A10A0E0B0E08DA39EA3AFA3B8A7072E79E012
S1130A20880F991FAA1FBB1F7A95D1F7702D89A72C
S1130A309AA7ABA7BCA76894882484F8912C5E017C
S1130A4091E2A90EB11C3FC18FEFBFDC382E8FEFAE
S1130A50BCDCC82ED12CE12CF12C8FEFB6DCFE2CA3
S1130A60ED2CDC2CCC24E82AC3288FEFAEDCF82A4A
S1130A70D801CD92DD92ED92FD928D01AA15BB05B0
S1130A8019F789819A81AB81BC8186349944AC443D
S1130A90B54409F014C18D819E81AF81B885B82F0A
S1130AA0AA27992788270097A105B14309F04FC0C9
S1130AB08D899E89AF89B88DDC0199278827498D56
S1130AC05A8D6B8D7C8DAB0166277727842B952BF4
S1130AD0A62BB72B2091510321111CC09C01AD0101
S1130AE0241935094609570969A57AA58BA59CA53A
S1130AF034D429A13AA14BA15CA1260F371F481F6A
S1130B00591F2093BF013093C0014093C1015093FA
S1130B10C2011DC02130D9F4BC01CD01641975098D
S1130B20860997092DA13EA14FA158A516D429A144
S1130B303AA14BA15CA1260F371F481F591F2093D0
S1130B40BF013093C0014093C1015093C2018D8114
S1130B509E81AF81B885B82FAA2799278827009747
S1130B60A105B24309F04FC08D899E89AF89B88D24
S1130B70DC0199278827498D5A8D6B8D7C8DAB01BB
S1130B8066277727842B952BA62BB72B209151030F
S1130B9021111CC09C01AD012419350946095709CE
S1130BA069A57AA58BA59CA5D8D329A13AA14BA167
S1130BB05CA1260F371F481F591F20934D03309304
S1130BC04E0340934F03509350031DC02130D9F47A
S1130BD0BC01CD0164197509860997092DA13EA1AF
S1130BE04FA158A5BAD329A13AA14BA15CA1260FC4
S1130BF0371F481F591F20934D0330934E034093D2
S1130C004F03509350038D819E81AF81B885B82FD7
S1130C10AA27992788270097A105B34309F04FC055
S1130C208D899E89AF89B88DDC0199278827498DE4
S1130C305A8D6B8D7C8DAB0166277727842B952B82
S1130C40A62BB72B2091510321111CC0BC01CD014F
S1130C50641975098609970929A53AA54BA55CA5C8
S1130C607CD329A13AA14BA15CA1260F371F481FB1
S1130C70591F2093430230934402409345025093FA
S1130C8046021DC02130D9F4BC01CD016419750997
S1130C90860997092DA13EA14FA158A55ED329A18C
S1130CA03AA14BA15CA1260F371F481F591F20935F
S1130CB0430230934402409345025093460231E08C
S1130CC0831A910821F08E010F5F1F4FBDCE8FEF65
S1130CD07CDB8FEF7ADBC69AAC960FB6F894DEBF56
S1130CE00FBECDBFDF91CF911F910F91FF90EF9079
S1130CF0DF90CF90BF90AF909F908F907F906F9038
S1130D005F904F903F9008951F920F920FB60F92ED
S1130D1011242F938F939F9380913D0190913E01D5
S1130D20892B39F51DBC1CBC2FE788E391E02150C9
S1130D3080409040E1F700C0000080910001909154
S1130D40010101968430910529F09093010180936B
S1130D50000106C081E090E09093010180930001BE
S1130D602FE788E391E0215080409040E1F700C0F4
S1130D70000080913D0190913E010197A1F481E032
S1130D8080933C0180914702909148029093030123
S1130D90809302012FE788E391E021508040904046
S1130DA0E1F700C000009F918F912F910F900FBE2B
S1130DB00F901F9018951F920F920FB60F92112447
S1130DC08F939F9381E090E090933E0180933D0147
S1130DD09F918F910F900FBE0F901F9018953F9287
S1130DE04F925F926F927F928F929F92AF92BF9237
S1130DF0CF92DF92EF92FF920F931F93CF93DF93E3
S1130E00CDB7DEB7C154D1090FB6F894DEBF0FBE1B
S1130E10CDBF84E59AE3A0E089839A83AB8388E419
S1130E209AE3A0E08C839D83AE8389E0E4E0F1E063
S1130E30DE01179601900D928A95E1F784E499E416
S1130E40AAE3B0E0888B998BAA8BBB8B81E1EDE0A0
S1130E50F1E0DE01549601900D928A95E1F781E16B
S1130E60EEE1F1E0DE01959601900D928A95E1F7AD
S1130E708FEF81BB82BB809364008093650084BB49
S1130E808FE785BB70DAE6DAF8DA80E58DB955DBF1
S1130E9046DB13DD8091510381112AC06091BF01AB
S1130EA07091C0018091C1019091C2019B01AC017C
S1130EB03250404E5C4F4EDB60914D0370914E03B7
S1130EC080914F03909150039B01AC013250404EEE
S1130ED05C4F40DB60914302709144028091450273
S1130EE0909146029B01AC013250404E5C4F32DB84
S1130EF080915103813069F56091BF017091C00107
S1130F008091C1019091C2019B01AC0121503047F5
S1130F104E4F5F4F1FDB60914D0370914E038091E4
S1130F204F03909150039B01AC01215030474E4F29
S1130F305F4F10DB6091430270914402809145023F
S1130F40909146029B01AC01215030474E4F5F4FB8
S1130F5001DB31D922DA29DA789432DA80913D0141
S1130F6090913E01892B09F062C00F2EFCE0FF2E08
S1130F70F02D00E011E0EFE2F1E0DE01D6968F2DD6
S1130F8001900D928A95E1F79E012A5C3F4F4BE058
S1130F9050E060E081E09DD9D8014C91405D6DE066
S1130FA081E05ED980910001909101018130910529
S1130FB089F48091BF019091C001A091C101B091C9
S1130FC0C2018093490290934A02A0934B02B093CA
S1130FD04C0226C08230910589F480914D03909192
S1130FE04E03A0914F03B091500380934902909314
S1130FF04A02A0934B02B0934C0212C0039781F4AF
S11310008091430290914402A0914502B09146021E
S11310108093490290934A02A0934B02B0934C02EE
S113102080913D0190913E01892B09F4A4CF87B7AB
S11310308B7F87BFC0D8B12C00E010E00F2EFCE9F5
S1131040AF2EF02D88248394912C512C412C53C124
S113105080913C01811107C1A1DA792E1FDB7C014B
S11310606801CC0CDD1CF601EE52FC4F91838083A9
S11310709E012F5F3F4F42E050E060E081E029D9BC
S11310809701ADECBCEC81D19C0136952795369542
S1131090279536952795C901880F991F220F331F6D
S11310A0220F331F220F331F280F391FA701421BA2
S11310B0530B405D62E081E0D3D89701ADECBCEC0A
S11310C064D196958795969587959695879540E3EF
S11310D0480F63E081E0C4D84FED64E081E0C0D8FC
S11310E043E465E081E0BCD8872DD8DA7C01F601C1
S11310F0E35BFD4F918380839E012C5F3F4F42E071
S113110050E067E081E0E5D89701ADECBCEC3DD15F
S11311109695879596958795969587959C01220F28
S1131120331F880F991F880F991F880F991F820FEB
S1131130931FA701481B590B405D69E081E090D8DB
S11311409701ADECBCEC21D1969587959695879542
S11311509695879540E3480F6AE081E081D845E29F
S11311606BE081E07DD874DA382EE82FF0E09F013F
S11311703695279536952795ABE7B4E106D1AC01B2
S1131180569547959801215C3E4F3901D9014C93FE
S11311906A2D6403900111242E0F3F1FADECBCECAB
S11311A0F4D0969587959695879596958795D801C9
S11311B0AE52BB4F6D018C93F801EE5AFC4F7F0188
S11311C0A49E300C1124880F982F990F990F890F22
S11311D0381A30829E01295F3F4F48E050E060E0BA
S11311E082E077D8D3014C91405D63E082E038D847
S11311F04EE264E082E034D8F6014081405D65E06F
S113120082E02ED8D7014C91405D66E082E028D878
S113121031DAF801ED53FE4F7F0180839E01205F98
S11312203F4F43E050E069E082E053D8D7014C914E
S1131230405D6CE082E014D8C4010B2C02C0880F1E
S1131240991F0A94E2F7809585BBB394B8E0BB126A
S113125001C0B12CEFEFF4E32CE0E150F04020406A
S1131260E1F700C0000010934802009347020F5FAB
S11312701F4F0032110509F03EC02EDA85BB809164
S11312805103811114C08091490290914A02A091A6
S11312904B02B0914C029E5FAF4FBF4F8093490207
S11312A090934A02A0934B02B0934C0215C0813034
S11312B099F48091490290914A02A0914B02B09115
S11312C04C020196A11DB11D8093490290934A02DC
S11312D0A0934B02B0934C023FEF64E38CE0315097
S11312E060408040E1F700C0000080913C01813003
S11312F049F0052D142D80913D0190913E010197F7
S113130009F4A6CE9E012C5E3F4F40E150E060E020
S113131081E00E9469019E012B5D3F4F40E150E056
S113132060E082E00E946901CF5BDF4F0FB6F89462
S1131330DEBF0FBECDBFDF91CF911F910F91FF9004
S1131340EF90DF90CF90BF90AF909F908F907F9061
S11313506F905F904F903F900895DB018F939F9320
S113136023D0BF91AF91A29F800D911DA39F900D9B
S1131370B29F900D11240895EE0FFF1F0024001C4E
S11313800BBE0790F691E02D0994A29FB001B39F84
S1131390C001A39F700D811D1124911DB29F700D7A
S11313A0811D1124911D0895F0DFA59F900DB49F18
S11313B0900DA49F800D911D11240895F894FFCFE2
S11313C00100000241493A20202020760053544F66
S11313D05020434F4C4C454354494E472000202055
S11313E020202020202020202020202020200066D3
S10F13F0696C652063686F6F7365000012
S9030000FC
